{"abi":[{"type":"constructor","inputs":[{"name":"_avsDirectory","type":"address","internalType":"address"},{"name":"_stakeRegistry","type":"address","internalType":"address"},{"name":"_rewardsCoordinator","type":"address","internalType":"address"},{"name":"_delegationManager","type":"address","internalType":"address"}],"stateMutability":"nonpayable"},{"type":"function","name":"REQUIRED_VALIDATIONS","inputs":[],"outputs":[{"name":"","type":"uint32","internalType":"uint32"}],"stateMutability":"view"},{"type":"function","name":"VALIDATION_TIMEOUT","inputs":[],"outputs":[{"name":"","type":"uint256","internalType":"uint256"}],"stateMutability":"view"},{"type":"function","name":"allTaskHashes","inputs":[{"name":"","type":"uint32","internalType":"uint32"}],"outputs":[{"name":"","type":"bytes32","internalType":"bytes32"}],"stateMutability":"view"},{"type":"function","name":"allTaskResponses","inputs":[{"name":"","type":"address","internalType":"address"},{"name":"","type":"uint32","internalType":"uint32"}],"outputs":[{"name":"","type":"bytes","internalType":"bytes"}],"stateMutability":"view"},{"type":"function","name":"avsDirectory","inputs":[],"outputs":[{"name":"","type":"address","internalType":"address"}],"stateMutability":"view"},{"type":"function","name":"createAVSRewardsSubmission","inputs":[{"name":"rewardsSubmissions","type":"tuple[]","internalType":"struct IRewardsCoordinator.RewardsSubmission[]","components":[{"name":"strategiesAndMultipliers","type":"tuple[]","internalType":"struct IRewardsCoordinator.StrategyAndMultiplier[]","components":[{"name":"strategy","type":"address","internalType":"contract IStrategy"},{"name":"multiplier","type":"uint96","internalType":"uint96"}]},{"name":"token","type":"address","internalType":"contract IERC20"},{"name":"amount","type":"uint256","internalType":"uint256"},{"name":"startTimestamp","type":"uint32","internalType":"uint32"},{"name":"duration","type":"uint32","internalType":"uint32"}]}],"outputs":[],"stateMutability":"nonpayable"},{"type":"function","name":"createNewTask","inputs":[{"name":"name","type":"string","internalType":"string"}],"outputs":[{"name":"","type":"tuple","internalType":"struct IHelloWorldServiceManager.Task","components":[{"name":"name","type":"string","internalType":"string"},{"name":"taskCreatedBlock","type":"uint32","internalType":"uint32"}]}],"stateMutability":"nonpayable"},{"type":"function","name":"createPaste","inputs":[{"name":"content","type":"string","internalType":"string"}],"outputs":[{"name":"","type":"uint256","internalType":"uint256"}],"stateMutability":"nonpayable"},{"type":"function","name":"deregisterOperatorFromAVS","inputs":[{"name":"operator","type":"address","internalType":"address"}],"outputs":[],"stateMutability":"nonpayable"},{"type":"function","name":"getOperatorRestakedStrategies","inputs":[{"name":"_operator","type":"address","internalType":"address"}],"outputs":[{"name":"","type":"address[]","internalType":"address[]"}],"stateMutability":"view"},{"type":"function","name":"getPaste","inputs":[{"name":"id","type":"uint256","internalType":"uint256"}],"outputs":[{"name":"pasteId","type":"uint256","internalType":"uint256"},{"name":"creator","type":"address","internalType":"address"},{"name":"content","type":"string","internalType":"string"},{"name":"timestamp","type":"uint256","internalType":"uint256"},{"name":"isValidated","type":"bool","internalType":"bool"},{"name":"validationsCount","type":"uint32","internalType":"uint32"},{"name":"isPublished","type":"bool","internalType":"bool"}],"stateMutability":"view"},{"type":"function","name":"getPasteValidationStatus","inputs":[{"name":"id","type":"uint256","internalType":"uint256"}],"outputs":[{"name":"isValidated","type":"bool","internalType":"bool"},{"name":"validationsCount","type":"uint32","internalType":"uint32"},{"name":"requiredValidations","type":"uint32","internalType":"uint32"},{"name":"isPublished","type":"bool","internalType":"bool"}],"stateMutability":"view"},{"type":"function","name":"getRestakeableStrategies","inputs":[],"outputs":[{"name":"","type":"address[]","internalType":"address[]"}],"stateMutability":"view"},{"type":"function","name":"hasOperatorValidated","inputs":[{"name":"id","type":"uint256","internalType":"uint256"},{"name":"operator","type":"address","internalType":"address"}],"outputs":[{"name":"","type":"bool","internalType":"bool"}],"stateMutability":"view"},{"type":"function","name":"latestTaskNum","inputs":[],"outputs":[{"name":"","type":"uint32","internalType":"uint32"}],"stateMutability":"view"},{"type":"function","name":"owner","inputs":[],"outputs":[{"name":"","type":"address","internalType":"address"}],"stateMutability":"view"},{"type":"function","name":"pasteCount","inputs":[],"outputs":[{"name":"","type":"uint256","internalType":"uint256"}],"stateMutability":"view"},{"type":"function","name":"pastes","inputs":[{"name":"","type":"uint256","internalType":"uint256"}],"outputs":[{"name":"id","type":"uint256","internalType":"uint256"},{"name":"creator","type":"address","internalType":"address"},{"name":"content","type":"string","internalType":"string"},{"name":"timestamp","type":"uint256","internalType":"uint256"},{"name":"isValidated","type":"bool","internalType":"bool"},{"name":"validationsCount","type":"uint32","internalType":"uint32"},{"name":"isPublished","type":"bool","internalType":"bool"}],"stateMutability":"view"},{"type":"function","name":"registerOperatorToAVS","inputs":[{"name":"operator","type":"address","internalType":"address"},{"name":"operatorSignature","type":"tuple","internalType":"struct ISignatureUtils.SignatureWithSaltAndExpiry","components":[{"name":"signature","type":"bytes","internalType":"bytes"},{"name":"salt","type":"bytes32","internalType":"bytes32"},{"name":"expiry","type":"uint256","internalType":"uint256"}]}],"outputs":[],"stateMutability":"nonpayable"},{"type":"function","name":"renounceOwnership","inputs":[],"outputs":[],"stateMutability":"nonpayable"},{"type":"function","name":"respondToTask","inputs":[{"name":"task","type":"tuple","internalType":"struct IHelloWorldServiceManager.Task","components":[{"name":"name","type":"string","internalType":"string"},{"name":"taskCreatedBlock","type":"uint32","internalType":"uint32"}]},{"name":"referenceTaskIndex","type":"uint32","internalType":"uint32"},{"name":"signature","type":"bytes","internalType":"bytes"}],"outputs":[],"stateMutability":"nonpayable"},{"type":"function","name":"rewardsInitiator","inputs":[],"outputs":[{"name":"","type":"address","internalType":"address"}],"stateMutability":"view"},{"type":"function","name":"setRewardsInitiator","inputs":[{"name":"newRewardsInitiator","type":"address","internalType":"address"}],"outputs":[],"stateMutability":"nonpayable"},{"type":"function","name":"stakeRegistry","inputs":[],"outputs":[{"name":"","type":"address","internalType":"address"}],"stateMutability":"view"},{"type":"function","name":"transferOwnership","inputs":[{"name":"newOwner","type":"address","internalType":"address"}],"outputs":[],"stateMutability":"nonpayable"},{"type":"function","name":"updateAVSMetadataURI","inputs":[{"name":"_metadataURI","type":"string","internalType":"string"}],"outputs":[],"stateMutability":"nonpayable"},{"type":"function","name":"validatePaste","inputs":[{"name":"pasteId","type":"uint256","internalType":"uint256"},{"name":"approved","type":"bool","internalType":"bool"},{"name":"reason","type":"string","internalType":"string"},{"name":"signature","type":"bytes","internalType":"bytes"}],"outputs":[],"stateMutability":"nonpayable"},{"type":"event","name":"Initialized","inputs":[{"name":"version","type":"uint8","indexed":false,"internalType":"uint8"}],"anonymous":false},{"type":"event","name":"NewTaskCreated","inputs":[{"name":"taskIndex","type":"uint32","indexed":true,"internalType":"uint32"},{"name":"task","type":"tuple","indexed":false,"internalType":"struct IHelloWorldServiceManager.Task","components":[{"name":"name","type":"string","internalType":"string"},{"name":"taskCreatedBlock","type":"uint32","internalType":"uint32"}]}],"anonymous":false},{"type":"event","name":"OwnershipTransferred","inputs":[{"name":"previousOwner","type":"address","indexed":true,"internalType":"address"},{"name":"newOwner","type":"address","indexed":true,"internalType":"address"}],"anonymous":false},{"type":"event","name":"PasteCreated","inputs":[{"name":"id","type":"uint256","indexed":true,"internalType":"uint256"},{"name":"creator","type":"address","indexed":true,"internalType":"address"},{"name":"content","type":"string","indexed":false,"internalType":"string"},{"name":"timestamp","type":"uint256","indexed":false,"internalType":"uint256"}],"anonymous":false},{"type":"event","name":"PastePublished","inputs":[{"name":"id","type":"uint256","indexed":true,"internalType":"uint256"},{"name":"validationsCount","type":"uint32","indexed":false,"internalType":"uint32"},{"name":"timestamp","type":"uint256","indexed":false,"internalType":"uint256"}],"anonymous":false},{"type":"event","name":"PasteRejected","inputs":[{"name":"id","type":"uint256","indexed":true,"internalType":"uint256"},{"name":"reason","type":"string","indexed":false,"internalType":"string"},{"name":"timestamp","type":"uint256","indexed":false,"internalType":"uint256"}],"anonymous":false},{"type":"event","name":"PasteValidated","inputs":[{"name":"id","type":"uint256","indexed":true,"internalType":"uint256"},{"name":"operator","type":"address","indexed":true,"internalType":"address"},{"name":"approved","type":"bool","indexed":false,"internalType":"bool"},{"name":"reason","type":"string","indexed":false,"internalType":"string"}],"anonymous":false},{"type":"event","name":"RewardsInitiatorUpdated","inputs":[{"name":"prevRewardsInitiator","type":"address","indexed":false,"internalType":"address"},{"name":"newRewardsInitiator","type":"address","indexed":false,"internalType":"address"}],"anonymous":false},{"type":"event","name":"TaskResponded","inputs":[{"name":"taskIndex","type":"uint32","indexed":true,"internalType":"uint32"},{"name":"task","type":"tuple","indexed":false,"internalType":"struct IHelloWorldServiceManager.Task","components":[{"name":"name","type":"string","internalType":"string"},{"name":"taskCreatedBlock","type":"uint32","internalType":"uint32"}]},{"name":"operator","type":"address","indexed":false,"internalType":"address"}],"anonymous":false}],"bytecode":{"object":"0x6101003461019557601f6127db38819003918201601f19168301916001600160401b0383118484101761019a5780849260809460405283398101031261019557610048816101b0565b90610055602082016101b0565b61006d6060610066604085016101b0565b93016101b0565b9260a05260805260c05260e05260005460ff8160081c166101405760ff80821610610105575b60405161261690816101c5823960805181818161083c01528181610aaf01528181610be9015281816111ae015281816112d5015281816117750152611ac0015260a051818181610a1d01528181610adf01528181610c120152611169015260c051816101b5015260e05181611b870152f35b60ff90811916176000557f7f26b83ff96e1f2b6a682f133852f6798a09c465da95921460cefb3847402498602060405160ff8152a138610093565b60405162461bcd60e51b815260206004820152602760248201527f496e697469616c697a61626c653a20636f6e747261637420697320696e697469604482015266616c697a696e6760c81b6064820152608490fd5b600080fd5b634e487b7160e01b600052604160045260246000fd5b51906001600160a01b03821682036101955756fe608080604052600436101561001357600080fd5b600090813560e01c908163052dccfe14611d9c575080632d89f6fc14611d6357806333cfb7b714611a8f5780633415a49c146117005780633b51e9611461125e5780633bc28c8c146111dd57806368304835146111985780636b3aa72e146111535780636f9a260a14610eea578063715018a614610e8d5780638333556e14610e0f57806385edf87414610d215780638b00ce7c14610cfd5780638da5cb5b14610cd45780639926ee7d14610b47578063a364f4da14610a8e578063a98fb35514610a03578063c20bab7f1461098b578063c7b6315614610922578063ccb2c7a414610905578063ccdb52cf146108e9578063e481af9d14610817578063e71c7dba146107b1578063f2b6028d146106df578063f2fde38b14610616578063fc299dee146105ed5763fce36c7d1461014a57600080fd5b3461025657602036600319011261025657600435906001600160401b0382116102565736602383011215610256578160040135916001600160401b0383116105e957602481018360051b9336602486850101116105e5576065546001600160a01b03163303610560577f00000000000000000000000000000000000000000000000000000000000000006001600160a01b0381169590855b838110610399575050853b1561039557906040519363fce36c7d60e01b8552816024860160206004880152526044808601938601019392869160c219813603015b8484106102645788808981818e8183818f03925af18015610259576102455750f35b8161024f91611e6b565b6102565780f35b80fd5b6040513d84823e3d90fd5b9091929394956043198882030184528635828112156103915760a08201919084016024810135604219368390030181121561034257816024910101602081359101936001600160401b03821161038d578160061b3603851361038d57819060a085525260c0830193908c905b8082106103465750505060448101356001600160a01b03811690819003610342579282608063ffffffff61032e60a4602097966001998980990152606481013560408701528361032260848301611dd0565b16606087015201611dd0565b169101529801940194019294939190610223565b8b80fd5b909194853560018060a01b03811680910361038957815260208601356001600160601b0381168091036103895760208201526040908101950191600101906102d0565b8e80fd5b8c80fd5b8980fd5b8480fd5b8660206001600160a01b036103b9826103b3868a8c6125aa565b016125cc565b16606460406103c9868a8c6125aa565b013560405194859384926323b872dd60e01b845233600485015230602485015260448401525af180156104f057610544575b506001600160a01b0361041460206103b384888a6125aa565b604051636eb1769f60e11b81523060048201526001600160a01b03851660248201529160209183916044918391165afa9081156104f057889161050f575b506001600160a01b0361046b60206103b385898b6125aa565b1690604061047a84888a6125aa565b01359081018091116104fb5760209060448b8b604051958694859363095ea7b360e01b8552600485015260248401525af180156104f05790600192916104c2575b50016101e2565b6104e29060203d81116104e9575b6104da8183611e6b565b8101906120cf565b50386104bb565b503d6104d0565b6040513d8a823e3d90fd5b634e487b7160e01b89526011600452602489fd5b90506020813d821161053c575b8161052960209383611e6b565b81010312610538575138610452565b8780fd5b3d915061051c565b61055b9060203d81116104e9576104da8183611e6b565b6103fb565b60405162461bcd60e51b815260206004820152605160248201527f4543445341536572766963654d616e61676572426173652e6f6e6c795265776160448201527f726473496e69746961746f723a2063616c6c6572206973206e6f7420746865206064820152703932bbb0b932399034b734ba34b0ba37b960791b608482015260a490fd5b8380fd5b5080fd5b50346102565780600319360112610256576065546040516001600160a01b039091168152602090f35b503461025657602036600319011261025657610630611de1565b610638612552565b6001600160a01b0316801561068b57603380546001600160a01b0319811683179091556001600160a01b03167f8be0079c531659141344cd1fd0a4f28419497f9722a3daafe3b4186f6b6457e08380a380f35b60405162461bcd60e51b815260206004820152602660248201527f4f776e61626c653a206e6577206f776e657220697320746865207a65726f206160448201526564647265737360d01b6064820152608490fd5b503461025657602036600319011261025657604090600435610704609b548210612279565b8152609a6020522060ff6006820154169081156107765761077260029282549260018060a01b03600182015416936003820154610757600484015493610750604051809a819301611f57565b0388611e6b565b60405196879660ff63ffffffff8660081c169516938861201b565b0390f35b60405162461bcd60e51b815260206004820152601360248201527214185cdd19481b9bdd081c1d589b1a5cda1959606a1b6044820152606490fd5b50346102565760203660031901126102565760406080916004356107d8609b548210612279565b8152609a6020522060ff600660048301549201541663ffffffff6040519260ff81161515845260081c1660208301526001604083015215156060820152f35b50346102565780600319360112610256576040516302e0740360e31b815281816004817f00000000000000000000000000000000000000000000000000000000000000006001600160a01b03165afa9081156102595782916108c7575b506108808151516124db565b915b815180518210156108b957600191906001600160a01b03906108a59083906124b1565b5151166108b282866124b1565b5201610882565b604051806107728682611df7565b6108e391503d8084833e6108db8183611e6b565b8101906123b4565b38610874565b5034610256578060031936011261025657602060405160018152f35b50346102565780600319360112610256576020604051610e108152f35b503461025657604036600319011261025657602435906004356001600160a01b03831683036105e95760059160409161095e609b548210612279565b8152609a60205220019060018060a01b0316600052602052602060ff604060002054166040519015158152f35b50346102565760403660031901126102565763ffffffff60406109ac611de1565b926109b5611db8565b9360018060a01b0316815260996020522091166000526020526107726109e86109ef604060002060405192838092611f57565b0382611e6b565b604051918291602083526020830190611fda565b50346102565780610a1336612069565b610a1b612552565b7f00000000000000000000000000000000000000000000000000000000000000006001600160a01b0316803b15610a8a5760405163a98fb35560e01b8152602060048201529183918391829084908290610a79906024830190611fda565b03925af18015610259576102455750f35b5050fd5b50346102565760203660031901126102565780610aa9611de1565b610add337f00000000000000000000000000000000000000000000000000000000000000006001600160a01b031614612318565b7f00000000000000000000000000000000000000000000000000000000000000006001600160a01b031690813b15610a8a576040516351b27a6d60e11b81526001600160a01b0390911660048201529082908290602490829084905af18015610259576102455750f35b503461025657604036600319011261025657610b61611de1565b602435906001600160401b038211610cd05760606003198336030112610cd05760405190606082018281106001600160401b03821117610cbc5760405283919060048401356001600160401b0381116105e557610bc49060043691870101611ed2565b82526020820191602485013583526044604082019501358552610c1060018060a01b037f0000000000000000000000000000000000000000000000000000000000000000163314612318565b7f00000000000000000000000000000000000000000000000000000000000000006001600160a01b031690813b156103955784610c8393819560405198899687958694639926ee7d60e01b865260018060a01b0316600486015260406024860152516060604486015260a4850190611fda565b9151606484015251608483015203925af18015610caf57610ca15780f35b610caa91611e6b565b388180f35b50604051903d90823e3d90fd5b634e487b7160e01b85526041600452602485fd5b8280fd5b50346102565780600319360112610256576033546040516001600160a01b039091168152602090f35b5034610256578060031936011261025657602063ffffffff60975416604051908152f35b503461025657610d3036612069565b610d386122fe565b50610d416122fe565b90815263ffffffff431660208201526040516020810190610d7481610d6685856120a4565b03601f198101835282611e6b565b51902063ffffffff60975416835260986020526040832055609754600163ffffffff8216807f58180a6a0403a63c2b5ce4b85d129d46a80d37851b2216bd0a98b59e7309b84760405180610dc888826120a4565b0390a2019263ffffffff8411610dfb575063ffffffff61077293169063ffffffff191617609755604051918291826120a4565b634e487b7160e01b81526011600452602490fd5b5034610256576020366003190112610256576040906004358152609a60205220805461077260018060a01b036001840154169160405193610e5e85610e578160028501611f57565b0386611e6b565b60038101549160ff60066004840154930154169260405196879660ff63ffffffff8660081c169516938861201b565b5034610256578060031936011261025657610ea6612552565b603380546001600160a01b0319811690915581906001600160a01b03167f8be0079c531659141344cd1fd0a4f28419497f9722a3daafe3b4186f6b6457e08280a380f35b5034610256576020366003190112610256576004356001600160401b0381116105e957610f1b903690600401611ef0565b801561110e5761271081116110d657609b5491828452609a6020526040842083815560018101336001600160601b0360a01b825416179055600281016001600160401b0384116110c257908184602097610f8182610f7b8a989754611f1d565b85612227565b80601f83116001146110335792610fd78360069461100f97947f6ffc9a13ae2e12de80f71439a0e61433b1c0b90041722a49dfd6e3d5558d6546999791611028575b508160011b916000199060031b1c19161790565b90555b426003820181905560048201805464ffffffffff191690559101805460ff1916905560405133969093849390929190846122bc565b0390a361101d609b546122d9565b609b55604051908152f35b905086013538610fc3565b91601f1981168484528a8420935b8181106110a557509261100f95927f6ffc9a13ae2e12de80f71439a0e61433b1c0b90041722a49dfd6e3d5558d65469795926006951061108b575b5050600188811b019055610fda565b85013560001960038b901b60f8161c19169055388061107c565b8388013585558a9850600190940193928b01928992508b01611041565b634e487b7160e01b86526041600452602486fd5b60405162461bcd60e51b815260206004820152601060248201526f436f6e74656e7420746f6f206c6f6e6760801b6044820152606490fd5b60405162461bcd60e51b815260206004820152601760248201527f436f6e74656e742063616e6e6f7420626520656d7074790000000000000000006044820152606490fd5b50346102565780600319360112610256576040517f00000000000000000000000000000000000000000000000000000000000000006001600160a01b03168152602090f35b50346102565780600319360112610256576040517f00000000000000000000000000000000000000000000000000000000000000006001600160a01b03168152602090f35b5034610256576020366003190112610256576111f7611de1565b6111ff612552565b606554604080516001600160a01b038084168252841660208201529192917fe11cddf1816a43318ca175bbc52cd0185436e9cbead7c83acc54a73e461717e39190a16001600160a01b03166001600160a01b0319919091161760655580f35b5034610256576080366003190112610256576004356024358015158082036105e5576044356001600160401b0381116103955761129f903690600401611ef0565b6064356001600160401b0381116116fc576112be903690600401611ed2565b60405163ec7fbb3160e01b815233600482015290947f00000000000000000000000000000000000000000000000000000000000000006001600160a01b0316949091602081602481895afa80156116f157611320918a916116d2575b506120e7565b61132d609b548810612279565b868852609a6020526040882094600486019660ff88541661168d57338a5260058701602081905260408b205490929060ff16611648576003880154610e1081018091116116345742116115ef576002880160405160208101918d809180549161139583611f1d565b92600181169081156115d3575060011461159c575b5050506113f09492826113cc602096946113d49403601f198101835282611e6b565b51902061250d565b604051809581948293630b135d3f60e11b8452600484016121d0565b03915afa80156115915761141e918b91611562575b506001600160e01b031916630b135d3f60e11b146121e7565b33895260205260408820805460ff19166001179055855460081c63ffffffff9081169081146104fb5764ffffffff0060018854920160081b169064ffffffff00191617865560405190815260406020820152867f701266f72e185a4a101f5092f5e798b1f252b872cbf59529444ed54e66f3b8ea3392806114a360408201888a612133565b0390a38454600163ffffffff8260081c1610156114be578780f35b60ff191660011794859055156115245750507f2d521db3afe6086a267065ad683e2543c3677e198989e358298ebb0259584e1391600660409201600160ff1982541617905563ffffffff82519160081c168152426020820152a25b388080808080808780f35b6040517fef8b0d90280ce29e15ed888c3d3db5f659ebab9f5d4e5622bcee4de3ad2a295594509250829161155a914291846122bc565b0390a2611519565b611584915060203d60201161158a575b61157c8183611e6b565b8101906121b0565b38611405565b503d611572565b6040513d8c823e3d90fd5b90919250528d602081205b8282106115bd575050810160200182828f6113aa565b60018160209254838588010152019101906115a7565b60ff19168752505050801515028201602001905082828f6113aa565b60405162461bcd60e51b815260206004820152601b60248201527f56616c69646174696f6e2074696d656f757420657863656564656400000000006044820152606490fd5b634e487b7160e01b8c52601160045260248cfd5b60405162461bcd60e51b815260206004820152601a60248201527f4f70657261746f7220616c72656164792076616c6964617465640000000000006044820152606490fd5b60405162461bcd60e51b815260206004820152601760248201527f506173746520616c72656164792076616c6964617465640000000000000000006044820152606490fd5b6116eb915060203d6020116104e9576104da8183611e6b565b3861131a565b6040513d8b823e3d90fd5b8680fd5b5034610256576060366003190112610256576004356001600160401b0381116105e9578060040181360360406003198201126105e55761173e611db8565b926044356001600160401b038111611a8b5761175e903690600401611ed2565b60405163ec7fbb3160e01b815233600482015290927f00000000000000000000000000000000000000000000000000000000000000006001600160a01b0316929091602081602481875afa80156104f0576117bf9189916116d257506120e7565b63ffffffff6040516020810190602082526117e181610d66604082018b612154565b5190209616958688526098602052604088205403611a52573387526099602052604087208688526020526118186040882054611f1d565b611a0d57843591602219018212156116fc570190856004830135926001600160401b0384116105e9576024019183360383136105e9576113d460209386936113cc602761189198604051938185928b8401976602432b6363796160cd1b895285850137820190838201520301601f198101835282611e6b565b03915afa8015611a02576118be91869161156257506001600160e01b031916630b135d3f60e11b146121e7565b33845260996020526040842083855260205260408420908051906001600160401b0382116110c2576118f482610f7b8554611f1d565b602090601f831160011461197957827f8eb2d2fcccf5801e10ff58cd73e8781ba923122963789378771f03c1148b023e9593611962959361194b938a9261196e575b50508160011b916000199060031b1c19161790565b90555b604051918291604083526040830190612154565b3360208301520390a280f35b015190503880611936565b8387528187209190601f198416885b8181106119ea57509260019285927f8eb2d2fcccf5801e10ff58cd73e8781ba923122963789378771f03c1148b023e98966119629896106119d1575b505050811b01905561194e565b015160001960f88460031b161c191690553880806119c4565b92936020600181928786015181550195019301611988565b6040513d87823e3d90fd5b60405162461bcd60e51b815260206004820152601a60248201527f4f70657261746f7220616c726561647920726573706f6e6465640000000000006044820152606490fd5b60405162461bcd60e51b8152602060048201526011602482015270496e76616c6964207461736b206461746160781b6044820152606490fd5b8580fd5b503461025657602036600319011261025657611aa9611de1565b6040516302e0740360e31b815290919081816004817f00000000000000000000000000000000000000000000000000000000000000006001600160a01b03165afa908115610259578291611d49575b509182515191611b078361239d565b91611b156040519384611e6b565b838352611b218461239d565b602084019590601f1901368737825b858110611d1b57505060408051639004134760e01b81526001600160a01b0390921660048301526024820152825160448201819052909490829086906064820190835b818110611cf65750929350909150819003817f00000000000000000000000000000000000000000000000000000000000000006001600160a01b03165afa938415610caf578194611c64575b5080815b848110611c385750611bd4906124db565b93815b848110611bec57604051806107728882611df7565b611bf681836124b1565b51611c04575b600101611bd7565b91600190611c30906001600160a01b03611c1e86886124b1565b5116611c2a828a6124b1565b526122d9565b929050611bfc565b611c4281876124b1565b51611c50575b600101611bc3565b90611c5c6001916122d9565b919050611c48565b9093503d8085833e611c768183611e6b565b810190602081830312610395578051906001600160401b038211611a8b57019080601f83011215610395578151611cac8161239d565b92611cba6040519485611e6b565b81845260208085019260051b8201019283116116fc57602001905b828210611ce6575050509238611bbf565b8151815260209182019101611cd5565b85516001600160a01b031683526020958601958795508a945090920191600101611b73565b600190818060a09995991b03611d328285516124b1565b515116611d3f82886124b1565b5201959195611b30565b611d5d91503d8084833e6108db8183611e6b565b38611af8565b50346102565760203660031901126102565760043563ffffffff81168091036105e9578160409160209352609883522054604051908152f35b9050346105e957816003193601126105e957602090609b548152f35b6024359063ffffffff82168203611dcb57565b600080fd5b359063ffffffff82168203611dcb57565b600435906001600160a01b0382168203611dcb57565b602060408183019282815284518094520192019060005b818110611e1b5750505090565b82516001600160a01b0316845260209384019390920191600101611e0e565b604081019081106001600160401b03821117611e5557604052565b634e487b7160e01b600052604160045260246000fd5b90601f801991011681019081106001600160401b03821117611e5557604052565b9291926001600160401b038211611e555760405191611eb5601f8201601f191660200184611e6b565b829481845281830111611dcb578281602093846000960137010152565b9080601f83011215611dcb57816020611eed93359101611e8c565b90565b9181601f84011215611dcb578235916001600160401b038311611dcb5760208381860195010111611dcb57565b90600182811c92168015611f4d575b6020831014611f3757565b634e487b7160e01b600052602260045260246000fd5b91607f1691611f2c565b60009291815491611f6783611f1d565b8083529260018116908115611fbd5750600114611f8357505050565b60009081526020812093945091925b838310611fa3575060209250010190565b600181602092949394548385870101520191019190611f92565b915050602093945060ff929192191683830152151560051b010190565b919082519283825260005b848110612006575050826000602080949584010152601f8019910116010190565b80602080928401015182828601015201611fe5565b959163ffffffff9361204f9160c097939a99969a895260018060a01b0316602089015260e0604089015260e0880190611fda565b976060870152151560808601521660a08401521515910152565b6020600319820112611dcb57600435906001600160401b038211611dcb5780602383011215611dcb57816024611eed93600401359101611e8c565b60208152604063ffffffff60206120c5855184838701526060860190611fda565b9401511691015290565b90816020910312611dcb57518015158103611dcb5790565b156120ee57565b60405162461bcd60e51b815260206004820152601b60248201527f4f70657261746f72206d757374206265207468652063616c6c657200000000006044820152606490fd5b908060209392818452848401376000828201840152601f01601f1916010190565b908135601e1983360301811215611dcb5782016020813591016001600160401b038211611dcb578136038113611dcb576121a960206121a263ffffffff938295604088526040880191612133565b9501611dd0565b1691015290565b90816020910312611dcb57516001600160e01b031981168103611dcb5790565b604090611eed939281528160208201520190611fda565b156121ee57565b60405162461bcd60e51b8152602060048201526011602482015270496e76616c6964207369676e617475726560781b6044820152606490fd5b601f821161223457505050565b6000526020600020906020601f840160051c8301931061226f575b601f0160051c01905b818110612263575050565b60008155600101612258565b909150819061224f565b1561228057565b60405162461bcd60e51b815260206004820152601460248201527314185cdd1948191bd95cc81b9bdd08195e1a5cdd60621b6044820152606490fd5b9392916020916122d491604087526040870191612133565b930152565b60001981146122e85760010190565b634e487b7160e01b600052601160045260246000fd5b6040519061230b82611e3a565b6000602083606081520152565b1561231f57565b60405162461bcd60e51b815260206004820152604a60248201527f4543445341536572766963654d616e61676572426173652e6f6e6c795374616b60448201527f6552656769737472793a2063616c6c6572206973206e6f7420746865207374616064820152696b65526567697374727960b01b608482015260a490fd5b6001600160401b038111611e555760051b60200190565b602081830312611dcb578051906001600160401b038211611dcb570190602082820312611dcb5760405191602083018381106001600160401b03821117611e55576040528051906001600160401b038211611dcb570181601f82011215611dcb578051906124218261239d565b9261242f6040519485611e6b565b82845260208085019360061b83010191818311611dcb57602001925b82841061245b5750505050815290565b604084830312611dcb576040519061247282611e3a565b84516001600160a01b0381168103611dcb5782526020850151906001600160601b0382168203611dcb578260209283604095015281520193019261244b565b80518210156124c55760209160051b010190565b634e487b7160e01b600052603260045260246000fd5b906124e58261239d565b6124f26040519182611e6b565b8281528092612503601f199161239d565b0190602036910137565b60405160208101917f19457468657265756d205369676e6564204d6573736167653a0a3332000000008352603c820152603c815261254c605c82611e6b565b51902090565b6033546001600160a01b0316330361256657565b606460405162461bcd60e51b815260206004820152602060248201527f4f776e61626c653a2063616c6c6572206973206e6f7420746865206f776e65726044820152fd5b91908110156124c55760051b81013590609e1981360301821215611dcb570190565b356001600160a01b0381168103611dcb579056fea264697066735822122060179c5fbd3788f778b9832c4ca69d9108c65b492910275381b3087526ee5a9864736f6c634300081a0033","linkReferences":{}},"methodIdentifiers":{"REQUIRED_VALIDATIONS()":"ccdb52cf","VALIDATION_TIMEOUT()":"ccb2c7a4","allTaskHashes(uint32)":"2d89f6fc","allTaskResponses(address,uint32)":"c20bab7f","avsDirectory()":"6b3aa72e","createAVSRewardsSubmission(((address,uint96)[],address,uint256,uint32,uint32)[])":"fce36c7d","createNewTask(string)":"85edf874","createPaste(string)":"6f9a260a","deregisterOperatorFromAVS(address)":"a364f4da","getOperatorRestakedStrategies(address)":"33cfb7b7","getPaste(uint256)":"f2b6028d","getPasteValidationStatus(uint256)":"e71c7dba","getRestakeableStrategies()":"e481af9d","hasOperatorValidated(uint256,address)":"c7b63156","latestTaskNum()":"8b00ce7c","owner()":"8da5cb5b","pasteCount()":"052dccfe","pastes(uint256)":"8333556e","registerOperatorToAVS(address,(bytes,bytes32,uint256))":"9926ee7d","renounceOwnership()":"715018a6","respondToTask((string,uint32),uint32,bytes)":"3415a49c","rewardsInitiator()":"fc299dee","setRewardsInitiator(address)":"3bc28c8c","stakeRegistry()":"68304835","transferOwnership(address)":"f2fde38b","updateAVSMetadataURI(string)":"a98fb355","validatePaste(uint256,bool,string,bytes)":"3b51e961"},"id":140}